{
  "_format": "hh-sol-artifact-1",
  "contractName": "NftMarketplace",
  "sourceName": "contracts/NftMarketplace.sol",
  "abi": [
    {
      "inputs": [],
      "stateMutability": "nonpayable",
      "type": "constructor"
    },
    {
      "inputs": [
        {
          "internalType": "address",
          "name": "nftAddress",
          "type": "address"
        },
        {
          "internalType": "uint256",
          "name": "tokenId",
          "type": "uint256"
        }
      ],
      "name": "NftMarketplace__AlreadyListed",
      "type": "error"
    },
    {
      "inputs": [],
      "name": "NftMarketplace__NoProceeds",
      "type": "error"
    },
    {
      "inputs": [],
      "name": "NftMarketplace__NotApprovedForMarketplace",
      "type": "error"
    },
    {
      "inputs": [
        {
          "internalType": "address",
          "name": "nftAddress",
          "type": "address"
        },
        {
          "internalType": "uint256",
          "name": "tokenId",
          "type": "uint256"
        }
      ],
      "name": "NftMarketplace__NotListed",
      "type": "error"
    },
    {
      "inputs": [],
      "name": "NftMarketplace__NotOwner",
      "type": "error"
    },
    {
      "inputs": [],
      "name": "NftMarketplace__PriceMustBeAboveZero",
      "type": "error"
    },
    {
      "inputs": [
        {
          "internalType": "address",
          "name": "nftAddress",
          "type": "address"
        },
        {
          "internalType": "uint256",
          "name": "tokenId",
          "type": "uint256"
        },
        {
          "internalType": "uint256",
          "name": "price",
          "type": "uint256"
        }
      ],
      "name": "NftMarketplace__PriceNotMet",
      "type": "error"
    },
    {
      "inputs": [],
      "name": "NftMarketplace__TransferFailed",
      "type": "error"
    },
    {
      "anonymous": false,
      "inputs": [
        {
          "indexed": true,
          "internalType": "address",
          "name": "buyer",
          "type": "address"
        },
        {
          "indexed": true,
          "internalType": "address",
          "name": "nftAddress",
          "type": "address"
        },
        {
          "indexed": true,
          "internalType": "uint256",
          "name": "tokenId",
          "type": "uint256"
        },
        {
          "indexed": false,
          "internalType": "uint256",
          "name": "price",
          "type": "uint256"
        }
      ],
      "name": "ItemBought",
      "type": "event"
    },
    {
      "anonymous": false,
      "inputs": [
        {
          "indexed": true,
          "internalType": "address",
          "name": "seller",
          "type": "address"
        },
        {
          "indexed": true,
          "internalType": "address",
          "name": "nftAddress",
          "type": "address"
        },
        {
          "indexed": true,
          "internalType": "uint256",
          "name": "tokenId",
          "type": "uint256"
        }
      ],
      "name": "ItemCanceled",
      "type": "event"
    },
    {
      "anonymous": false,
      "inputs": [
        {
          "indexed": true,
          "internalType": "address",
          "name": "seller",
          "type": "address"
        },
        {
          "indexed": true,
          "internalType": "address",
          "name": "nftAddress",
          "type": "address"
        },
        {
          "indexed": true,
          "internalType": "uint256",
          "name": "tokenId",
          "type": "uint256"
        },
        {
          "indexed": false,
          "internalType": "uint256",
          "name": "price",
          "type": "uint256"
        }
      ],
      "name": "ItemListed",
      "type": "event"
    },
    {
      "inputs": [
        {
          "internalType": "address",
          "name": "nftAddress",
          "type": "address"
        },
        {
          "internalType": "uint256",
          "name": "tokenId",
          "type": "uint256"
        }
      ],
      "name": "buyItems",
      "outputs": [],
      "stateMutability": "payable",
      "type": "function"
    },
    {
      "inputs": [
        {
          "internalType": "address",
          "name": "nftAddress",
          "type": "address"
        },
        {
          "internalType": "uint256",
          "name": "tokenId",
          "type": "uint256"
        }
      ],
      "name": "cancelListing",
      "outputs": [],
      "stateMutability": "nonpayable",
      "type": "function"
    },
    {
      "inputs": [
        {
          "internalType": "address",
          "name": "nftAddress",
          "type": "address"
        },
        {
          "internalType": "uint256",
          "name": "tokenId",
          "type": "uint256"
        }
      ],
      "name": "getListing",
      "outputs": [
        {
          "components": [
            {
              "internalType": "uint256",
              "name": "price",
              "type": "uint256"
            },
            {
              "internalType": "address",
              "name": "seller",
              "type": "address"
            }
          ],
          "internalType": "struct NftMarketplace.Listing",
          "name": "",
          "type": "tuple"
        }
      ],
      "stateMutability": "view",
      "type": "function"
    },
    {
      "inputs": [
        {
          "internalType": "address",
          "name": "seller",
          "type": "address"
        }
      ],
      "name": "getProceeds",
      "outputs": [
        {
          "internalType": "uint256",
          "name": "",
          "type": "uint256"
        }
      ],
      "stateMutability": "view",
      "type": "function"
    },
    {
      "inputs": [
        {
          "internalType": "address",
          "name": "nftAddress",
          "type": "address"
        },
        {
          "internalType": "uint256",
          "name": "tokenId",
          "type": "uint256"
        },
        {
          "internalType": "uint256",
          "name": "price",
          "type": "uint256"
        }
      ],
      "name": "listItem",
      "outputs": [],
      "stateMutability": "nonpayable",
      "type": "function"
    },
    {
      "inputs": [
        {
          "internalType": "address",
          "name": "nftAddress",
          "type": "address"
        },
        {
          "internalType": "uint256",
          "name": "tokenId",
          "type": "uint256"
        },
        {
          "internalType": "uint256",
          "name": "newPrice",
          "type": "uint256"
        }
      ],
      "name": "updateListing",
      "outputs": [],
      "stateMutability": "nonpayable",
      "type": "function"
    },
    {
      "inputs": [],
      "name": "withdrawProceeds",
      "outputs": [],
      "stateMutability": "nonpayable",
      "type": "function"
    }
  ],
  "bytecode": "0x60a060405260fa60035534801561001557600080fd5b5060016000819055503373ffffffffffffffffffffffffffffffffffffffff1660808173ffffffffffffffffffffffffffffffffffffffff1660601b8152505060805160601c611eb46100886000396000818161068f015281816106f90152818161097f01526109e90152611eb46000f3fe6080604052600436106100705760003560e01c806389bfd38f1161004e57806389bfd38f1461010b5780639038e69314610134578063b2ddee061461014b578063f772adf11461017457610070565b806330cfeda91461007557806363fa870b146100b257806388700d1c146100ce575b600080fd5b34801561008157600080fd5b5061009c60048036038101906100979190611996565b61019d565b6040516100a991906119dc565b60405180910390f35b6100cc60048036038101906100c79190611a23565b6101e6565b005b3480156100da57600080fd5b506100f560048036038101906100f09190611a23565b610bbb565b6040516101029190611ab0565b60405180910390f35b34801561011757600080fd5b50610132600480360381019061012d9190611acb565b610c86565b005b34801561014057600080fd5b506101496110fe565b005b34801561015757600080fd5b50610172600480360381019061016d9190611a23565b611268565b005b34801561018057600080fd5b5061019b60048036038101906101969190611acb565b611557565b005b6000600260008373ffffffffffffffffffffffffffffffffffffffff1673ffffffffffffffffffffffffffffffffffffffff168152602001908152602001600020549050919050565b81816000600160008473ffffffffffffffffffffffffffffffffffffffff1673ffffffffffffffffffffffffffffffffffffffff1681526020019081526020016000206000838152602001908152602001600020604051806040016040529081600082015481526020016001820160009054906101000a900473ffffffffffffffffffffffffffffffffffffffff1673ffffffffffffffffffffffffffffffffffffffff1673ffffffffffffffffffffffffffffffffffffffff1681525050905060008160000151116102f25782826040517f6d350f220000000000000000000000000000000000000000000000000000000081526004016102e9929190611b2d565b60405180910390fd5b60026000541415610338576040517f08c379a000000000000000000000000000000000000000000000000000000000815260040161032f90611bb3565b60405180910390fd5b60026000819055506000600160008773ffffffffffffffffffffffffffffffffffffffff1673ffffffffffffffffffffffffffffffffffffffff1681526020019081526020016000206000868152602001908152602001600020604051806040016040529081600082015481526020016001820160009054906101000a900473ffffffffffffffffffffffffffffffffffffffff1673ffffffffffffffffffffffffffffffffffffffff1673ffffffffffffffffffffffffffffffffffffffff16815250509050806000015134101561045057858582600001516040517f817ce9f100000000000000000000000000000000000000000000000000000000815260040161044793929190611bd3565b60405180910390fd5b600086905060008173ffffffffffffffffffffffffffffffffffffffff166340a58a32886040518263ffffffff1660e01b815260040161049091906119dc565b60206040518083038186803b1580156104a857600080fd5b505afa1580156104bc573d6000803e3d6000fd5b505050506040513d601f19601f820116820180604052508101906104e09190611c1f565b90506000836020015190508073ffffffffffffffffffffffffffffffffffffffff168273ffffffffffffffffffffffffffffffffffffffff16146108bd57600061052f8a8a8760000151611828565b9050600061054086600001516118df565b905060008287600001516105549190611c7b565b905081816105629190611c7b565b905082600260008773ffffffffffffffffffffffffffffffffffffffff1673ffffffffffffffffffffffffffffffffffffffff168152602001908152602001600020546105af9190611caf565b600260008773ffffffffffffffffffffffffffffffffffffffff1673ffffffffffffffffffffffffffffffffffffffff168152602001908152602001600020819055508060026000896020015173ffffffffffffffffffffffffffffffffffffffff1673ffffffffffffffffffffffffffffffffffffffff168152602001908152602001600020546106419190611caf565b60026000896020015173ffffffffffffffffffffffffffffffffffffffff1673ffffffffffffffffffffffffffffffffffffffff1681526020019081526020016000208190555081600260007f000000000000000000000000000000000000000000000000000000000000000073ffffffffffffffffffffffffffffffffffffffff1673ffffffffffffffffffffffffffffffffffffffff168152602001908152602001600020546106f39190611caf565b600260007f000000000000000000000000000000000000000000000000000000000000000073ffffffffffffffffffffffffffffffffffffffff1673ffffffffffffffffffffffffffffffffffffffff16815260200190815260200160002081905550600160008d73ffffffffffffffffffffffffffffffffffffffff1673ffffffffffffffffffffffffffffffffffffffff16815260200190815260200160002060008c81526020019081526020016000206000808201600090556001820160006101000a81549073ffffffffffffffffffffffffffffffffffffffff021916905550508b73ffffffffffffffffffffffffffffffffffffffff166342842e0e8860200151338e6040518463ffffffff1660e01b815260040161081993929190611d05565b600060405180830381600087803b15801561083357600080fd5b505af1158015610847573d6000803e3d6000fd5b505050508a8c73ffffffffffffffffffffffffffffffffffffffff163373ffffffffffffffffffffffffffffffffffffffff167f263223b1dd81e51054a4e6f791d45a4a1ddb4aadcd93a2dfd892615c3fdac1878a600001516040516108ad91906119dc565b60405180910390a4505050610ba8565b60006108cc85600001516118df565b905060008186600001516108e09190611c7b565b90508060026000886020015173ffffffffffffffffffffffffffffffffffffffff1673ffffffffffffffffffffffffffffffffffffffff168152602001908152602001600020546109319190611caf565b60026000886020015173ffffffffffffffffffffffffffffffffffffffff1673ffffffffffffffffffffffffffffffffffffffff1681526020019081526020016000208190555081600260007f000000000000000000000000000000000000000000000000000000000000000073ffffffffffffffffffffffffffffffffffffffff1673ffffffffffffffffffffffffffffffffffffffff168152602001908152602001600020546109e39190611caf565b600260007f000000000000000000000000000000000000000000000000000000000000000073ffffffffffffffffffffffffffffffffffffffff1673ffffffffffffffffffffffffffffffffffffffff16815260200190815260200160002081905550600160008c73ffffffffffffffffffffffffffffffffffffffff1673ffffffffffffffffffffffffffffffffffffffff16815260200190815260200160002060008b81526020019081526020016000206000808201600090556001820160006101000a81549073ffffffffffffffffffffffffffffffffffffffff021916905550508a73ffffffffffffffffffffffffffffffffffffffff166342842e0e8760200151338d6040518463ffffffff1660e01b8152600401610b0993929190611d05565b600060405180830381600087803b158015610b2357600080fd5b505af1158015610b37573d6000803e3d6000fd5b50505050898b73ffffffffffffffffffffffffffffffffffffffff163373ffffffffffffffffffffffffffffffffffffffff167f263223b1dd81e51054a4e6f791d45a4a1ddb4aadcd93a2dfd892615c3fdac1878960000151604051610b9d91906119dc565b60405180910390a450505b5050505060016000819055505050505050565b610bc3611903565b600160008473ffffffffffffffffffffffffffffffffffffffff1673ffffffffffffffffffffffffffffffffffffffff1681526020019081526020016000206000838152602001908152602001600020604051806040016040529081600082015481526020016001820160009054906101000a900473ffffffffffffffffffffffffffffffffffffffff1673ffffffffffffffffffffffffffffffffffffffff1673ffffffffffffffffffffffffffffffffffffffff1681525050905092915050565b8282336000600160008573ffffffffffffffffffffffffffffffffffffffff1673ffffffffffffffffffffffffffffffffffffffff1681526020019081526020016000206000848152602001908152602001600020604051806040016040529081600082015481526020016001820160009054906101000a900473ffffffffffffffffffffffffffffffffffffffff1673ffffffffffffffffffffffffffffffffffffffff1673ffffffffffffffffffffffffffffffffffffffff16815250509050600081600001511115610d945783836040517fc2f0d709000000000000000000000000000000000000000000000000000000008152600401610d8b929190611b2d565b60405180910390fd5b868633600083905060008173ffffffffffffffffffffffffffffffffffffffff16636352211e856040518263ffffffff1660e01b8152600401610dd791906119dc565b60206040518083038186803b158015610def57600080fd5b505afa158015610e03573d6000803e3d6000fd5b505050506040513d601f19601f82011682018060405250810190610e279190611c1f565b90508073ffffffffffffffffffffffffffffffffffffffff168373ffffffffffffffffffffffffffffffffffffffff1614610e8e576040517f94953b6000000000000000000000000000000000000000000000000000000000815260040160405180910390fd5b60008a11610ec8576040517f096d7ecf00000000000000000000000000000000000000000000000000000000815260040160405180910390fd5b60008c90503073ffffffffffffffffffffffffffffffffffffffff168173ffffffffffffffffffffffffffffffffffffffff1663081812fc8e6040518263ffffffff1660e01b8152600401610f1d91906119dc565b60206040518083038186803b158015610f3557600080fd5b505afa158015610f49573d6000803e3d6000fd5b505050506040513d601f19601f82011682018060405250810190610f6d9190611c1f565b73ffffffffffffffffffffffffffffffffffffffff1614610fba576040517f13e7d28d00000000000000000000000000000000000000000000000000000000815260040160405180910390fd5b60405180604001604052808c81526020013373ffffffffffffffffffffffffffffffffffffffff16815250600160008f73ffffffffffffffffffffffffffffffffffffffff1673ffffffffffffffffffffffffffffffffffffffff16815260200190815260200160002060008e81526020019081526020016000206000820151816000015560208201518160010160006101000a81548173ffffffffffffffffffffffffffffffffffffffff021916908373ffffffffffffffffffffffffffffffffffffffff1602179055509050508b8d73ffffffffffffffffffffffffffffffffffffffff163373ffffffffffffffffffffffffffffffffffffffff167fd547e933094f12a9159076970143ebe73234e64480317844b0dcb36117116de48e6040516110e791906119dc565b60405180910390a450505050505050505050505050565b6000600260003373ffffffffffffffffffffffffffffffffffffffff1673ffffffffffffffffffffffffffffffffffffffff1681526020019081526020016000205490506000811161117c576040517f668a7c4200000000000000000000000000000000000000000000000000000000815260040160405180910390fd5b6000600260003373ffffffffffffffffffffffffffffffffffffffff1673ffffffffffffffffffffffffffffffffffffffff1681526020019081526020016000208190555060003373ffffffffffffffffffffffffffffffffffffffff16826040516111e790611d6d565b60006040518083038185875af1925050503d8060008114611224576040519150601f19603f3d011682016040523d82523d6000602084013e611229565b606091505b5050905080611264576040517fa05884ba00000000000000000000000000000000000000000000000000000000815260040160405180910390fd5b5050565b818133600083905060008173ffffffffffffffffffffffffffffffffffffffff16636352211e856040518263ffffffff1660e01b81526004016112ab91906119dc565b60206040518083038186803b1580156112c357600080fd5b505afa1580156112d7573d6000803e3d6000fd5b505050506040513d601f19601f820116820180604052508101906112fb9190611c1f565b90508073ffffffffffffffffffffffffffffffffffffffff168373ffffffffffffffffffffffffffffffffffffffff1614611362576040517f94953b6000000000000000000000000000000000000000000000000000000000815260040160405180910390fd5b86866000600160008473ffffffffffffffffffffffffffffffffffffffff1673ffffffffffffffffffffffffffffffffffffffff1681526020019081526020016000206000838152602001908152602001600020604051806040016040529081600082015481526020016001820160009054906101000a900473ffffffffffffffffffffffffffffffffffffffff1673ffffffffffffffffffffffffffffffffffffffff1673ffffffffffffffffffffffffffffffffffffffff16815250509050600081600001511161146e5782826040517f6d350f22000000000000000000000000000000000000000000000000000000008152600401611465929190611b2d565b60405180910390fd5b600160008b73ffffffffffffffffffffffffffffffffffffffff1673ffffffffffffffffffffffffffffffffffffffff16815260200190815260200160002060008a81526020019081526020016000206000808201600090556001820160006101000a81549073ffffffffffffffffffffffffffffffffffffffff02191690555050888a73ffffffffffffffffffffffffffffffffffffffff163373ffffffffffffffffffffffffffffffffffffffff167f9ba1a3cb55ce8d63d072a886f94d2a744f50cddf82128e897d0661f5ec62315860405160405180910390a450505050505050505050565b828233600083905060008173ffffffffffffffffffffffffffffffffffffffff16636352211e856040518263ffffffff1660e01b815260040161159a91906119dc565b60206040518083038186803b1580156115b257600080fd5b505afa1580156115c6573d6000803e3d6000fd5b505050506040513d601f19601f820116820180604052508101906115ea9190611c1f565b90508073ffffffffffffffffffffffffffffffffffffffff168373ffffffffffffffffffffffffffffffffffffffff1614611651576040517f94953b6000000000000000000000000000000000000000000000000000000000815260040160405180910390fd5b87876000600160008473ffffffffffffffffffffffffffffffffffffffff1673ffffffffffffffffffffffffffffffffffffffff1681526020019081526020016000206000838152602001908152602001600020604051806040016040529081600082015481526020016001820160009054906101000a900473ffffffffffffffffffffffffffffffffffffffff1673ffffffffffffffffffffffffffffffffffffffff1673ffffffffffffffffffffffffffffffffffffffff16815250509050600081600001511161175d5782826040517f6d350f22000000000000000000000000000000000000000000000000000000008152600401611754929190611b2d565b60405180910390fd5b88600160008d73ffffffffffffffffffffffffffffffffffffffff1673ffffffffffffffffffffffffffffffffffffffff16815260200190815260200160002060008c815260200190815260200160002060000181905550898b73ffffffffffffffffffffffffffffffffffffffff163373ffffffffffffffffffffffffffffffffffffffff167fd547e933094f12a9159076970143ebe73234e64480317844b0dcb36117116de48c60405161181391906119dc565b60405180910390a45050505050505050505050565b60008084905060008173ffffffffffffffffffffffffffffffffffffffff1663c7ea4f17866040518263ffffffff1660e01b815260040161186991906119dc565b60206040518083038186803b15801561188157600080fd5b505afa158015611895573d6000803e3d6000fd5b505050506040513d601f19601f820116820180604052508101906118b99190611d97565b905080612710856118ca9190611df3565b6118d49190611e24565b925050509392505050565b6000600354612710836118f29190611df3565b6118fc9190611e24565b9050919050565b604051806040016040528060008152602001600073ffffffffffffffffffffffffffffffffffffffff1681525090565b600080fd5b600073ffffffffffffffffffffffffffffffffffffffff82169050919050565b600061196382611938565b9050919050565b61197381611958565b811461197e57600080fd5b50565b6000813590506119908161196a565b92915050565b6000602082840312156119ac576119ab611933565b5b60006119ba84828501611981565b91505092915050565b6000819050919050565b6119d6816119c3565b82525050565b60006020820190506119f160008301846119cd565b92915050565b611a00816119c3565b8114611a0b57600080fd5b50565b600081359050611a1d816119f7565b92915050565b60008060408385031215611a3a57611a39611933565b5b6000611a4885828601611981565b9250506020611a5985828601611a0e565b9150509250929050565b611a6c816119c3565b82525050565b611a7b81611958565b82525050565b604082016000820151611a976000850182611a63565b506020820151611aaa6020850182611a72565b50505050565b6000604082019050611ac56000830184611a81565b92915050565b600080600060608486031215611ae457611ae3611933565b5b6000611af286828701611981565b9350506020611b0386828701611a0e565b9250506040611b1486828701611a0e565b9150509250925092565b611b2781611958565b82525050565b6000604082019050611b426000830185611b1e565b611b4f60208301846119cd565b9392505050565b600082825260208201905092915050565b7f5265656e7472616e637947756172643a207265656e7472616e742063616c6c00600082015250565b6000611b9d601f83611b56565b9150611ba882611b67565b602082019050919050565b60006020820190508181036000830152611bcc81611b90565b9050919050565b6000606082019050611be86000830186611b1e565b611bf560208301856119cd565b611c0260408301846119cd565b949350505050565b600081519050611c198161196a565b92915050565b600060208284031215611c3557611c34611933565b5b6000611c4384828501611c0a565b91505092915050565b7f4e487b7100000000000000000000000000000000000000000000000000000000600052601160045260246000fd5b6000611c86826119c3565b9150611c91836119c3565b925082821015611ca457611ca3611c4c565b5b828203905092915050565b6000611cba826119c3565b9150611cc5836119c3565b9250827fffffffffffffffffffffffffffffffffffffffffffffffffffffffffffffffff03821115611cfa57611cf9611c4c565b5b828201905092915050565b6000606082019050611d1a6000830186611b1e565b611d276020830185611b1e565b611d3460408301846119cd565b949350505050565b600081905092915050565b50565b6000611d57600083611d3c565b9150611d6282611d47565b600082019050919050565b6000611d7882611d4a565b9150819050919050565b600081519050611d91816119f7565b92915050565b600060208284031215611dad57611dac611933565b5b6000611dbb84828501611d82565b91505092915050565b7f4e487b7100000000000000000000000000000000000000000000000000000000600052601260045260246000fd5b6000611dfe826119c3565b9150611e09836119c3565b925082611e1957611e18611dc4565b5b828204905092915050565b6000611e2f826119c3565b9150611e3a836119c3565b9250817fffffffffffffffffffffffffffffffffffffffffffffffffffffffffffffffff0483118215151615611e7357611e72611c4c565b5b82820290509291505056fea2646970667358221220d7f00c1286e121d06356c31d1997719a128e7b3e859e59f0c477bf90cc5e43d364736f6c63430008080033",
  "linkReferences": {},
  "deployedLinkReferences": {}
}