{
  "address": "0x9fE46736679d2D9a65F0992F2272dE9f3c7fa6e0",
  "abi": [
    {
      "inputs": [],
      "stateMutability": "nonpayable",
      "type": "constructor"
    },
    {
      "anonymous": false,
      "inputs": [
        {
          "indexed": true,
          "internalType": "address",
          "name": "from",
          "type": "address"
        },
        {
          "indexed": true,
          "internalType": "address",
          "name": "to",
          "type": "address"
        },
        {
          "indexed": false,
          "internalType": "uint256",
          "name": "amount",
          "type": "uint256"
        }
      ],
      "name": "Allowance",
      "type": "event"
    },
    {
      "anonymous": false,
      "inputs": [
        {
          "indexed": true,
          "internalType": "address",
          "name": "recipient",
          "type": "address"
        },
        {
          "indexed": true,
          "internalType": "address",
          "name": "to",
          "type": "address"
        },
        {
          "indexed": false,
          "internalType": "uint256",
          "name": "amount",
          "type": "uint256"
        }
      ],
      "name": "Transfer",
      "type": "event"
    },
    {
      "inputs": [],
      "name": "Contractbalance",
      "outputs": [
        {
          "internalType": "uint256",
          "name": "",
          "type": "uint256"
        }
      ],
      "stateMutability": "view",
      "type": "function"
    },
    {
      "inputs": [
        {
          "internalType": "address",
          "name": "_owner",
          "type": "address"
        },
        {
          "internalType": "address",
          "name": "_spender",
          "type": "address"
        }
      ],
      "name": "allowance",
      "outputs": [
        {
          "internalType": "uint256",
          "name": "",
          "type": "uint256"
        }
      ],
      "stateMutability": "view",
      "type": "function"
    },
    {
      "inputs": [
        {
          "internalType": "address",
          "name": "_spender",
          "type": "address"
        },
        {
          "internalType": "uint256",
          "name": "_value",
          "type": "uint256"
        }
      ],
      "name": "approval",
      "outputs": [
        {
          "internalType": "bool",
          "name": "success",
          "type": "bool"
        }
      ],
      "stateMutability": "nonpayable",
      "type": "function"
    },
    {
      "inputs": [
        {
          "internalType": "address",
          "name": "user",
          "type": "address"
        }
      ],
      "name": "balanceOf",
      "outputs": [
        {
          "internalType": "uint256",
          "name": "",
          "type": "uint256"
        }
      ],
      "stateMutability": "view",
      "type": "function"
    },
    {
      "inputs": [
        {
          "internalType": "uint256",
          "name": "amount",
          "type": "uint256"
        }
      ],
      "name": "burn",
      "outputs": [],
      "stateMutability": "nonpayable",
      "type": "function"
    },
    {
      "inputs": [
        {
          "internalType": "uint256",
          "name": "_value",
          "type": "uint256"
        }
      ],
      "name": "buyTokens",
      "outputs": [
        {
          "internalType": "bool",
          "name": "",
          "type": "bool"
        }
      ],
      "stateMutability": "payable",
      "type": "function"
    },
    {
      "inputs": [],
      "name": "decimals",
      "outputs": [
        {
          "internalType": "uint256",
          "name": "",
          "type": "uint256"
        }
      ],
      "stateMutability": "view",
      "type": "function"
    },
    {
      "inputs": [
        {
          "internalType": "uint256",
          "name": "_amount",
          "type": "uint256"
        }
      ],
      "name": "mint",
      "outputs": [],
      "stateMutability": "nonpayable",
      "type": "function"
    },
    {
      "inputs": [],
      "name": "name",
      "outputs": [
        {
          "internalType": "string",
          "name": "",
          "type": "string"
        }
      ],
      "stateMutability": "view",
      "type": "function"
    },
    {
      "inputs": [],
      "name": "owner",
      "outputs": [
        {
          "internalType": "address",
          "name": "",
          "type": "address"
        }
      ],
      "stateMutability": "view",
      "type": "function"
    },
    {
      "inputs": [],
      "name": "pricePerToken",
      "outputs": [
        {
          "internalType": "uint256",
          "name": "",
          "type": "uint256"
        }
      ],
      "stateMutability": "view",
      "type": "function"
    },
    {
      "inputs": [],
      "name": "remainingTokens",
      "outputs": [
        {
          "internalType": "uint256",
          "name": "",
          "type": "uint256"
        }
      ],
      "stateMutability": "view",
      "type": "function"
    },
    {
      "inputs": [],
      "name": "symbol",
      "outputs": [
        {
          "internalType": "string",
          "name": "",
          "type": "string"
        }
      ],
      "stateMutability": "view",
      "type": "function"
    },
    {
      "inputs": [],
      "name": "tokensRequriedForNFTMinting",
      "outputs": [
        {
          "internalType": "uint256",
          "name": "",
          "type": "uint256"
        }
      ],
      "stateMutability": "pure",
      "type": "function"
    },
    {
      "inputs": [],
      "name": "totalAmount",
      "outputs": [
        {
          "internalType": "uint256",
          "name": "",
          "type": "uint256"
        }
      ],
      "stateMutability": "view",
      "type": "function"
    },
    {
      "inputs": [],
      "name": "totalSupply",
      "outputs": [
        {
          "internalType": "uint256",
          "name": "",
          "type": "uint256"
        }
      ],
      "stateMutability": "view",
      "type": "function"
    },
    {
      "inputs": [
        {
          "internalType": "address",
          "name": "reciever",
          "type": "address"
        },
        {
          "internalType": "uint256",
          "name": "amount",
          "type": "uint256"
        }
      ],
      "name": "transfer",
      "outputs": [
        {
          "internalType": "bool",
          "name": "",
          "type": "bool"
        }
      ],
      "stateMutability": "nonpayable",
      "type": "function"
    },
    {
      "inputs": [
        {
          "internalType": "address",
          "name": "_from",
          "type": "address"
        },
        {
          "internalType": "address",
          "name": "_to",
          "type": "address"
        },
        {
          "internalType": "uint256",
          "name": "_value",
          "type": "uint256"
        }
      ],
      "name": "transferFrom",
      "outputs": [
        {
          "internalType": "bool",
          "name": "success",
          "type": "bool"
        }
      ],
      "stateMutability": "nonpayable",
      "type": "function"
    },
    {
      "inputs": [],
      "name": "withdrawMoney",
      "outputs": [],
      "stateMutability": "nonpayable",
      "type": "function"
    }
  ],
  "transactionHash": "0x058c80729d4b5a8afc5bb89f1b2cc04bf8ba9a0ea9bddac6fa40ed50d3f96686",
  "args": [],
  "numDeployments": 1,
  "solcInputHash": "ec78b56406dd3962c0facf05a4d695db",
  "bytecode": "0x60a060405269021e19e0c9bab240000060015560015460025566038d7ea4c6800060035534801561002f57600080fd5b50336000806101000a81548173ffffffffffffffffffffffffffffffffffffffff021916908373ffffffffffffffffffffffffffffffffffffffff1602179055506012608081815250506080516116b9610094600039600061078801526116b96000f3fe6080604052600436106101145760003560e01c806370a08231116100a0578063a0712d6811610064578063a0712d68146103ac578063a9059cbb146103d5578063ac44600214610412578063bf58390314610429578063dd62ed3e1461045457610114565b806370a08231146102b157806375247a58146102ee5780637b1b1de61461032b5780638da5cb5b1461035657806395d89b411461038157610114565b80631a39d8ef116100e75780631a39d8ef146101c557806323b872dd146101f0578063313ce5671461022d5780633610724e1461025857806342966c681461028857610114565b8063064c30801461011957806306fdde0314610144578063099296281461016f57806318160ddd1461019a575b600080fd5b34801561012557600080fd5b5061012e610491565b60405161013b9190610fca565b60405180910390f35b34801561015057600080fd5b506101596104ad565b604051610166919061107e565b60405180910390f35b34801561017b57600080fd5b506101846104e6565b6040516101919190610fca565b60405180910390f35b3480156101a657600080fd5b506101af6104ee565b6040516101bc9190610fca565b60405180910390f35b3480156101d157600080fd5b506101da6104f4565b6040516101e79190610fca565b60405180910390f35b3480156101fc57600080fd5b506102176004803603810190610212919061112f565b6104fc565b604051610224919061119d565b60405180910390f35b34801561023957600080fd5b50610242610786565b60405161024f9190610fca565b60405180910390f35b610272600480360381019061026d91906111b8565b6107aa565b60405161027f919061119d565b60405180910390f35b34801561029457600080fd5b506102af60048036038101906102aa91906111b8565b6108a4565b005b3480156102bd57600080fd5b506102d860048036038101906102d391906111e5565b6109ac565b6040516102e59190610fca565b60405180910390f35b3480156102fa57600080fd5b5061031560048036038101906103109190611212565b6109f5565b604051610322919061119d565b60405180910390f35b34801561033757600080fd5b50610340610ae7565b60405161034d9190610fca565b60405180910390f35b34801561036257600080fd5b5061036b610aed565b6040516103789190611261565b60405180910390f35b34801561038d57600080fd5b50610396610b16565b6040516103a3919061107e565b60405180910390f35b3480156103b857600080fd5b506103d360048036038101906103ce91906111b8565b610b4f565b005b3480156103e157600080fd5b506103fc60048036038101906103f79190611212565b610c12565b604051610409919061119d565b60405180910390f35b34801561041e57600080fd5b50610427610dea565b005b34801561043557600080fd5b5061043e610f24565b60405161044b9190610fca565b60405180910390f35b34801561046057600080fd5b5061047b6004803603810190610476919061127c565b610f2a565b6040516104889190610fca565b60405180910390f35b6000600a670de0b6b3a76400006104a891906112eb565b905090565b6040518060400160405280600881526020017f44455820434f494e00000000000000000000000000000000000000000000000081525081565b600047905090565b60015481565b600047905090565b600080600560008673ffffffffffffffffffffffffffffffffffffffff1673ffffffffffffffffffffffffffffffffffffffff16815260200190815260200160002060003373ffffffffffffffffffffffffffffffffffffffff1673ffffffffffffffffffffffffffffffffffffffff16815260200190815260200160002054905082600460008773ffffffffffffffffffffffffffffffffffffffff1673ffffffffffffffffffffffffffffffffffffffff16815260200190815260200160002054101580156105cd5750828110155b6105d657600080fd5b82600460008673ffffffffffffffffffffffffffffffffffffffff1673ffffffffffffffffffffffffffffffffffffffff16815260200190815260200160002060008282546106259190611345565b9250508190555082600460008773ffffffffffffffffffffffffffffffffffffffff1673ffffffffffffffffffffffffffffffffffffffff168152602001908152602001600020600082825461067b919061139b565b9250508190555082600560008773ffffffffffffffffffffffffffffffffffffffff1673ffffffffffffffffffffffffffffffffffffffff16815260200190815260200160002060003373ffffffffffffffffffffffffffffffffffffffff1673ffffffffffffffffffffffffffffffffffffffff168152602001908152602001600020600082825461070e919061139b565b925050819055508373ffffffffffffffffffffffffffffffffffffffff168573ffffffffffffffffffffffffffffffffffffffff167fddf252ad1be2c89b69c2b068fc378daa952ba7f163c4a11628f55a4df523b3ef856040516107729190610fca565b60405180910390a360019150509392505050565b7f000000000000000000000000000000000000000000000000000000000000000081565b600081670de0b6b3a76400006107c091906112eb565b6002546107cd919061139b565b600281905550600060025411610818576040517f08c379a000000000000000000000000000000000000000000000000000000000815260040161080f90611441565b60405180910390fd5b8160035461082691906112eb565b34101561083257600080fd5b81670de0b6b3a764000061084691906112eb565b600460003373ffffffffffffffffffffffffffffffffffffffff1673ffffffffffffffffffffffffffffffffffffffff16815260200190815260200160002060008282546108949190611345565b9250508190555060019050919050565b60008054906101000a900473ffffffffffffffffffffffffffffffffffffffff1673ffffffffffffffffffffffffffffffffffffffff163373ffffffffffffffffffffffffffffffffffffffff1614610932576040517f08c379a0000000000000000000000000000000000000000000000000000000008152600401610929906114ad565b60405180910390fd5b806001541015610977576040517f08c379a000000000000000000000000000000000000000000000000000000000815260040161096e9061153f565b60405180910390fd5b8060016000828254610989919061139b565b9250508190555080600260008282546109a2919061139b565b9250508190555050565b6000600460008373ffffffffffffffffffffffffffffffffffffffff1673ffffffffffffffffffffffffffffffffffffffff168152602001908152602001600020549050919050565b600081600560003373ffffffffffffffffffffffffffffffffffffffff1673ffffffffffffffffffffffffffffffffffffffff16815260200190815260200160002060008573ffffffffffffffffffffffffffffffffffffffff1673ffffffffffffffffffffffffffffffffffffffff168152602001908152602001600020819055508273ffffffffffffffffffffffffffffffffffffffff163373ffffffffffffffffffffffffffffffffffffffff167ff0c939eb6a826391911442cba6d5a67238ac3d6ef13e3398f5def320a9629c5084604051610ad59190610fca565b60405180910390a36001905092915050565b60035481565b60008060009054906101000a900473ffffffffffffffffffffffffffffffffffffffff16905090565b6040518060400160405280600281526020017f444300000000000000000000000000000000000000000000000000000000000081525081565b60008054906101000a900473ffffffffffffffffffffffffffffffffffffffff1673ffffffffffffffffffffffffffffffffffffffff163373ffffffffffffffffffffffffffffffffffffffff1614610bdd576040517f08c379a0000000000000000000000000000000000000000000000000000000008152600401610bd4906114ad565b60405180910390fd5b8060016000828254610bef9190611345565b925050819055508060026000828254610c089190611345565b9250508190555050565b600081670de0b6b3a7640000610c2891906112eb565b600460003373ffffffffffffffffffffffffffffffffffffffff1673ffffffffffffffffffffffffffffffffffffffff168152602001908152602001600020541015610ca9576040517f08c379a0000000000000000000000000000000000000000000000000000000008152600401610ca0906115d1565b60405180910390fd5b81670de0b6b3a7640000610cbd91906112eb565b600460003373ffffffffffffffffffffffffffffffffffffffff1673ffffffffffffffffffffffffffffffffffffffff1681526020019081526020016000206000828254610d0b919061139b565b9250508190555081670de0b6b3a7640000610d2691906112eb565b600460008573ffffffffffffffffffffffffffffffffffffffff1673ffffffffffffffffffffffffffffffffffffffff1681526020019081526020016000206000828254610d749190611345565b925050819055508273ffffffffffffffffffffffffffffffffffffffff163373ffffffffffffffffffffffffffffffffffffffff167fddf252ad1be2c89b69c2b068fc378daa952ba7f163c4a11628f55a4df523b3ef84604051610dd89190610fca565b60405180910390a36001905092915050565b60008054906101000a900473ffffffffffffffffffffffffffffffffffffffff1673ffffffffffffffffffffffffffffffffffffffff163373ffffffffffffffffffffffffffffffffffffffff1614610e78576040517f08c379a0000000000000000000000000000000000000000000000000000000008152600401610e6f906114ad565b60405180910390fd5b60004711610ebb576040517f08c379a0000000000000000000000000000000000000000000000000000000008152600401610eb290611663565b60405180910390fd5b60008054906101000a900473ffffffffffffffffffffffffffffffffffffffff1673ffffffffffffffffffffffffffffffffffffffff166108fc479081150290604051600060405180830381858888f19350505050158015610f21573d6000803e3d6000fd5b50565b60025481565b6000600560008473ffffffffffffffffffffffffffffffffffffffff1673ffffffffffffffffffffffffffffffffffffffff16815260200190815260200160002060008373ffffffffffffffffffffffffffffffffffffffff1673ffffffffffffffffffffffffffffffffffffffff16815260200190815260200160002054905092915050565b6000819050919050565b610fc481610fb1565b82525050565b6000602082019050610fdf6000830184610fbb565b92915050565b600081519050919050565b600082825260208201905092915050565b60005b8381101561101f578082015181840152602081019050611004565b8381111561102e576000848401525b50505050565b6000601f19601f8301169050919050565b600061105082610fe5565b61105a8185610ff0565b935061106a818560208601611001565b61107381611034565b840191505092915050565b600060208201905081810360008301526110988184611045565b905092915050565b600080fd5b600073ffffffffffffffffffffffffffffffffffffffff82169050919050565b60006110d0826110a5565b9050919050565b6110e0816110c5565b81146110eb57600080fd5b50565b6000813590506110fd816110d7565b92915050565b61110c81610fb1565b811461111757600080fd5b50565b60008135905061112981611103565b92915050565b600080600060608486031215611148576111476110a0565b5b6000611156868287016110ee565b9350506020611167868287016110ee565b92505060406111788682870161111a565b9150509250925092565b60008115159050919050565b61119781611182565b82525050565b60006020820190506111b2600083018461118e565b92915050565b6000602082840312156111ce576111cd6110a0565b5b60006111dc8482850161111a565b91505092915050565b6000602082840312156111fb576111fa6110a0565b5b6000611209848285016110ee565b91505092915050565b60008060408385031215611229576112286110a0565b5b6000611237858286016110ee565b92505060206112488582860161111a565b9150509250929050565b61125b816110c5565b82525050565b60006020820190506112766000830184611252565b92915050565b60008060408385031215611293576112926110a0565b5b60006112a1858286016110ee565b92505060206112b2858286016110ee565b9150509250929050565b7f4e487b7100000000000000000000000000000000000000000000000000000000600052601160045260246000fd5b60006112f682610fb1565b915061130183610fb1565b9250817fffffffffffffffffffffffffffffffffffffffffffffffffffffffffffffffff048311821515161561133a576113396112bc565b5b828202905092915050565b600061135082610fb1565b915061135b83610fb1565b9250827fffffffffffffffffffffffffffffffffffffffffffffffffffffffffffffffff038211156113905761138f6112bc565b5b828201905092915050565b60006113a682610fb1565b91506113b183610fb1565b9250828210156113c4576113c36112bc565b5b828203905092915050565b7f576520646f6e7420686176652074686174206d75636820746f6b656e7320726960008201527f6768746e6f770000000000000000000000000000000000000000000000000000602082015250565b600061142b602683610ff0565b9150611436826113cf565b604082019050919050565b6000602082019050818103600083015261145a8161141e565b9050919050565b7f596f7520617265206e6f7420616c6c6f77656420746f20646f20746861740000600082015250565b6000611497601e83610ff0565b91506114a282611461565b602082019050919050565b600060208201905081810360008301526114c68161148a565b9050919050565b7f596f7520646f6e74206861766520656e6f75676820746f6b656e7320746f206260008201527f75726e0000000000000000000000000000000000000000000000000000000000602082015250565b6000611529602383610ff0565b9150611534826114cd565b604082019050919050565b600060208201905081810360008301526115588161151c565b9050919050565b7f596f7520646f6e74206861766520656e6f75676820746f6b656e7320746f207460008201527f72616e7366657200000000000000000000000000000000000000000000000000602082015250565b60006115bb602783610ff0565b91506115c68261155f565b604082019050919050565b600060208201905081810360008301526115ea816115ae565b9050919050565b7f446f6e742068617665206d6f6e657920696e2074686520636f6e74726163742060008201527f746f207769746864726177000000000000000000000000000000000000000000602082015250565b600061164d602b83610ff0565b9150611658826115f1565b604082019050919050565b6000602082019050818103600083015261167c81611640565b905091905056fea264697066735822122086893bf9f5233e7d59741c5e5256d1e2c63a69dde4bd8b0b33d991630c31384e64736f6c63430008080033",
  "devdoc": {
    "kind": "dev",
    "methods": {},
    "version": 1
  },
  "userdoc": {
    "kind": "user",
    "methods": {},
    "version": 1
  },
  "storageLayout": {
    "storage": [
      {
        "astId": 2440,
        "contract": "contracts/Token.sol:MyToken",
        "label": "admin",
        "offset": 0,
        "slot": "0",
        "type": "t_address"
      },
      {
        "astId": 2449,
        "contract": "contracts/Token.sol:MyToken",
        "label": "totalSupply",
        "offset": 0,
        "slot": "1",
        "type": "t_uint256"
      },
      {
        "astId": 2452,
        "contract": "contracts/Token.sol:MyToken",
        "label": "remainingTokens",
        "offset": 0,
        "slot": "2",
        "type": "t_uint256"
      },
      {
        "astId": 2455,
        "contract": "contracts/Token.sol:MyToken",
        "label": "pricePerToken",
        "offset": 0,
        "slot": "3",
        "type": "t_uint256"
      },
      {
        "astId": 2483,
        "contract": "contracts/Token.sol:MyToken",
        "label": "balances",
        "offset": 0,
        "slot": "4",
        "type": "t_mapping(t_address,t_uint256)"
      },
      {
        "astId": 2489,
        "contract": "contracts/Token.sol:MyToken",
        "label": "allowed",
        "offset": 0,
        "slot": "5",
        "type": "t_mapping(t_address,t_mapping(t_address,t_uint256))"
      }
    ],
    "types": {
      "t_address": {
        "encoding": "inplace",
        "label": "address",
        "numberOfBytes": "20"
      },
      "t_mapping(t_address,t_mapping(t_address,t_uint256))": {
        "encoding": "mapping",
        "key": "t_address",
        "label": "mapping(address => mapping(address => uint256))",
        "numberOfBytes": "32",
        "value": "t_mapping(t_address,t_uint256)"
      },
      "t_mapping(t_address,t_uint256)": {
        "encoding": "mapping",
        "key": "t_address",
        "label": "mapping(address => uint256)",
        "numberOfBytes": "32",
        "value": "t_uint256"
      },
      "t_uint256": {
        "encoding": "inplace",
        "label": "uint256",
        "numberOfBytes": "32"
      }
    }
  }
}